{
  "_format": "hh-sol-artifact-1",
  "contractName": "RPS",
  "sourceName": "contracts/RPS.sol",
  "abi": [
    {
      "inputs": [
        {
          "internalType": "bytes32",
          "name": "_c1Hash",
          "type": "bytes32"
        },
        {
          "internalType": "address",
          "name": "_j2",
          "type": "address"
        }
      ],
      "stateMutability": "payable",
      "type": "constructor"
    },
    {
      "inputs": [],
      "name": "TIMEOUT",
      "outputs": [
        {
          "internalType": "uint256",
          "name": "",
          "type": "uint256"
        }
      ],
      "stateMutability": "view",
      "type": "function"
    },
    {
      "inputs": [],
      "name": "c1Hash",
      "outputs": [
        {
          "internalType": "bytes32",
          "name": "",
          "type": "bytes32"
        }
      ],
      "stateMutability": "view",
      "type": "function"
    },
    {
      "inputs": [],
      "name": "c2",
      "outputs": [
        {
          "internalType": "enum RPS.Move",
          "name": "",
          "type": "uint8"
        }
      ],
      "stateMutability": "view",
      "type": "function"
    },
    {
      "inputs": [],
      "name": "j1",
      "outputs": [
        {
          "internalType": "address",
          "name": "",
          "type": "address"
        }
      ],
      "stateMutability": "view",
      "type": "function"
    },
    {
      "inputs": [],
      "name": "j1Timeout",
      "outputs": [],
      "stateMutability": "nonpayable",
      "type": "function"
    },
    {
      "inputs": [],
      "name": "j2",
      "outputs": [
        {
          "internalType": "address",
          "name": "",
          "type": "address"
        }
      ],
      "stateMutability": "view",
      "type": "function"
    },
    {
      "inputs": [],
      "name": "j2Timeout",
      "outputs": [],
      "stateMutability": "nonpayable",
      "type": "function"
    },
    {
      "inputs": [],
      "name": "lastAction",
      "outputs": [
        {
          "internalType": "uint256",
          "name": "",
          "type": "uint256"
        }
      ],
      "stateMutability": "view",
      "type": "function"
    },
    {
      "inputs": [
        {
          "internalType": "enum RPS.Move",
          "name": "_c2",
          "type": "uint8"
        }
      ],
      "name": "play",
      "outputs": [],
      "stateMutability": "payable",
      "type": "function"
    },
    {
      "inputs": [
        {
          "internalType": "enum RPS.Move",
          "name": "_c1",
          "type": "uint8"
        },
        {
          "internalType": "uint256",
          "name": "_salt",
          "type": "uint256"
        }
      ],
      "name": "solve",
      "outputs": [],
      "stateMutability": "nonpayable",
      "type": "function"
    },
    {
      "inputs": [],
      "name": "stake",
      "outputs": [
        {
          "internalType": "uint256",
          "name": "",
          "type": "uint256"
        }
      ],
      "stateMutability": "view",
      "type": "function"
    },
    {
      "inputs": [
        {
          "internalType": "enum RPS.Move",
          "name": "_c1",
          "type": "uint8"
        },
        {
          "internalType": "enum RPS.Move",
          "name": "_c2",
          "type": "uint8"
        }
      ],
      "name": "win",
      "outputs": [
        {
          "internalType": "bool",
          "name": "w",
          "type": "bool"
        }
      ],
      "stateMutability": "pure",
      "type": "function"
    }
  ],
  "bytecode": "0x608060405261012c600555604051620013133803806200131383398181016040528101906200002f9190620000fb565b34600481905550336000806101000a81548173ffffffffffffffffffffffffffffffffffffffff021916908373ffffffffffffffffffffffffffffffffffffffff16021790555080600160006101000a81548173ffffffffffffffffffffffffffffffffffffffff021916908373ffffffffffffffffffffffffffffffffffffffff16021790555081600281905550426006819055505050620001ae565b600081519050620000de816200017a565b92915050565b600081519050620000f58162000194565b92915050565b600080604083850312156200010f57600080fd5b60006200011f85828601620000e4565b92505060206200013285828601620000cd565b9150509250929050565b600062000149826200015a565b9050919050565b6000819050919050565b600073ffffffffffffffffffffffffffffffffffffffff82169050919050565b62000185816200013c565b81146200019157600080fd5b50565b6200019f8162000150565b8114620001ab57600080fd5b50565b61115580620001be6000396000f3fe6080604052600436106100a75760003560e01c806380985af91161006457806380985af91461019d57806389f71d53146101c8578063a5ddec7c146101f3578063c37597c61461021c578063c839114214610247578063f56f48f21461025e576100a7565b80630c4395b9146100ac578063294914a4146100e95780633a4b66f11461010057806348e257cb1461012b5780634d03e3d21461015657806353a04b0514610181575b600080fd5b3480156100b857600080fd5b506100d360048036038101906100ce9190610d32565b610289565b6040516100e09190610e6a565b60405180910390f35b3480156100f557600080fd5b506100fe610514565b005b34801561010c57600080fd5b5061011561061d565b6040516101229190610ebb565b60405180910390f35b34801561013757600080fd5b50610140610623565b60405161014d9190610ea0565b60405180910390f35b34801561016257600080fd5b5061016b610636565b6040516101789190610e85565b60405180910390f35b61019b60048036038101906101969190610d09565b61063c565b005b3480156101a957600080fd5b506101b2610808565b6040516101bf9190610e4f565b60405180910390f35b3480156101d457600080fd5b506101dd61082e565b6040516101ea9190610ebb565b60405180910390f35b3480156101ff57600080fd5b5061021a60048036038101906102159190610d6e565b610834565b005b34801561022857600080fd5b50610231610b9d565b60405161023e9190610e4f565b60405180910390f35b34801561025357600080fd5b5061025c610bc1565b005b34801561026a57600080fd5b50610273610cd9565b6040516102809190610ebb565b60405180910390f35b60008160058111156102c4577f4e487b7100000000000000000000000000000000000000000000000000000000600052602160045260246000fd5b8360058111156102fd577f4e487b7100000000000000000000000000000000000000000000000000000000600052602160045260246000fd5b141561030c576000905061050e565b60006005811115610346577f4e487b7100000000000000000000000000000000000000000000000000000000600052602160045260246000fd5b83600581111561037f577f4e487b7100000000000000000000000000000000000000000000000000000000600052602160045260246000fd5b141561038e576000905061050e565b60028260058111156103c9577f4e487b7100000000000000000000000000000000000000000000000000000000600052602160045260246000fd5b6103d39190611019565b600284600581111561040e577f4e487b7100000000000000000000000000000000000000000000000000000000600052602160045260246000fd5b6104189190611019565b141561049857816005811115610457577f4e487b7100000000000000000000000000000000000000000000000000000000600052602160045260246000fd5b836005811115610490577f4e487b7100000000000000000000000000000000000000000000000000000000600052602160045260246000fd5b10905061050e565b8160058111156104d1577f4e487b7100000000000000000000000000000000000000000000000000000000600052602160045260246000fd5b83600581111561050a577f4e487b7100000000000000000000000000000000000000000000000000000000600052602160045260246000fd5b1190505b92915050565b6000600581111561054e577f4e487b7100000000000000000000000000000000000000000000000000000000600052602160045260246000fd5b600360009054906101000a900460ff166005811115610596577f4e487b7100000000000000000000000000000000000000000000000000000000600052602160045260246000fd5b146105a057600080fd5b6005546006546105b09190610ed6565b42116105bb57600080fd5b60008054906101000a900473ffffffffffffffffffffffffffffffffffffffff1673ffffffffffffffffffffffffffffffffffffffff166108fc6004549081150290604051600060405180830381858888f19350505050506000600481905550565b60045481565b600360009054906101000a900460ff1681565b60025481565b60006005811115610676577f4e487b7100000000000000000000000000000000000000000000000000000000600052602160045260246000fd5b600360009054906101000a900460ff1660058111156106be577f4e487b7100000000000000000000000000000000000000000000000000000000600052602160045260246000fd5b146106c857600080fd5b60006005811115610702577f4e487b7100000000000000000000000000000000000000000000000000000000600052602160045260246000fd5b81600581111561073b577f4e487b7100000000000000000000000000000000000000000000000000000000600052602160045260246000fd5b141561074657600080fd5b600454341461075457600080fd5b600160009054906101000a900473ffffffffffffffffffffffffffffffffffffffff1673ffffffffffffffffffffffffffffffffffffffff163373ffffffffffffffffffffffffffffffffffffffff16146107ae57600080fd5b80600360006101000a81548160ff021916908360058111156107f9577f4e487b7100000000000000000000000000000000000000000000000000000000600052602160045260246000fd5b02179055504260068190555050565b600160009054906101000a900473ffffffffffffffffffffffffffffffffffffffff1681565b60065481565b6000600581111561086e577f4e487b7100000000000000000000000000000000000000000000000000000000600052602160045260246000fd5b8260058111156108a7577f4e487b7100000000000000000000000000000000000000000000000000000000600052602160045260246000fd5b14156108b257600080fd5b600060058111156108ec577f4e487b7100000000000000000000000000000000000000000000000000000000600052602160045260246000fd5b600360009054906101000a900460ff166005811115610934577f4e487b7100000000000000000000000000000000000000000000000000000000600052602160045260246000fd5b141561093f57600080fd5b60008054906101000a900473ffffffffffffffffffffffffffffffffffffffff1673ffffffffffffffffffffffffffffffffffffffff163373ffffffffffffffffffffffffffffffffffffffff161461099757600080fd5b60025482826040516020016109ad929190610e23565b60405160208183030381529060405280519060200120146109cd57600080fd5b6109e682600360009054906101000a900460ff16610289565b15610a545760008054906101000a900473ffffffffffffffffffffffffffffffffffffffff1673ffffffffffffffffffffffffffffffffffffffff166108fc6004546002610a349190610f2c565b9081150290604051600060405180830381858888f1935050505050610b91565b610a6d600360009054906101000a900460ff1683610289565b15610add57600160009054906101000a900473ffffffffffffffffffffffffffffffffffffffff1673ffffffffffffffffffffffffffffffffffffffff166108fc6004546002610abd9190610f2c565b9081150290604051600060405180830381858888f1935050505050610b90565b60008054906101000a900473ffffffffffffffffffffffffffffffffffffffff1673ffffffffffffffffffffffffffffffffffffffff166108fc6004549081150290604051600060405180830381858888f1935050505050600160009054906101000a900473ffffffffffffffffffffffffffffffffffffffff1673ffffffffffffffffffffffffffffffffffffffff166108fc6004549081150290604051600060405180830381858888f19350505050505b5b60006004819055505050565b60008054906101000a900473ffffffffffffffffffffffffffffffffffffffff1681565b60006005811115610bfb577f4e487b7100000000000000000000000000000000000000000000000000000000600052602160045260246000fd5b600360009054906101000a900460ff166005811115610c43577f4e487b7100000000000000000000000000000000000000000000000000000000600052602160045260246000fd5b1415610c4e57600080fd5b600554600654610c5e9190610ed6565b4211610c6957600080fd5b600160009054906101000a900473ffffffffffffffffffffffffffffffffffffffff1673ffffffffffffffffffffffffffffffffffffffff166108fc6004546002610cb49190610f2c565b9081150290604051600060405180830381858888f19350505050506000600481905550565b60055481565b600081359050610cee816110f8565b92915050565b600081359050610d0381611108565b92915050565b600060208284031215610d1b57600080fd5b6000610d2984828501610cdf565b91505092915050565b60008060408385031215610d4557600080fd5b6000610d5385828601610cdf565b9250506020610d6485828601610cdf565b9150509250929050565b60008060408385031215610d8157600080fd5b6000610d8f85828601610cdf565b9250506020610da085828601610cf4565b9150509250929050565b610db381610f86565b82525050565b610dc281610f98565b82525050565b610dd181610fa4565b82525050565b610de081610feb565b82525050565b610df7610df282610feb565b611007565b82525050565b610e0681610fe1565b82525050565b610e1d610e1882610fe1565b610ffd565b82525050565b6000610e2f8285610de6565b600182019150610e3f8284610e0c565b6020820191508190509392505050565b6000602082019050610e646000830184610daa565b92915050565b6000602082019050610e7f6000830184610db9565b92915050565b6000602082019050610e9a6000830184610dc8565b92915050565b6000602082019050610eb56000830184610dd7565b92915050565b6000602082019050610ed06000830184610dfd565b92915050565b6000610ee182610fe1565b9150610eec83610fe1565b9250827fffffffffffffffffffffffffffffffffffffffffffffffffffffffffffffffff03821115610f2157610f2061104a565b5b828201905092915050565b6000610f3782610fe1565b9150610f4283610fe1565b9250817fffffffffffffffffffffffffffffffffffffffffffffffffffffffffffffffff0483118215151615610f7b57610f7a61104a565b5b828202905092915050565b6000610f9182610fc1565b9050919050565b60008115159050919050565b6000819050919050565b6000819050610fbc826110e4565b919050565b600073ffffffffffffffffffffffffffffffffffffffff82169050919050565b6000819050919050565b6000610ff682610fae565b9050919050565b6000819050919050565b6000611012826110d7565b9050919050565b600061102482610fe1565b915061102f83610fe1565b92508261103f5761103e611079565b5b828206905092915050565b7f4e487b7100000000000000000000000000000000000000000000000000000000600052601160045260246000fd5b7f4e487b7100000000000000000000000000000000000000000000000000000000600052601260045260246000fd5b7f4e487b7100000000000000000000000000000000000000000000000000000000600052602160045260246000fd5b60008160f81b9050919050565b600681106110f5576110f46110a8565b5b50565b6006811061110557600080fd5b50565b61111181610fe1565b811461111c57600080fd5b5056fea2646970667358221220f092e1b466a43f0cde9f4fe1a0de388b8c3d8900a79f6747435704b0a9fed84b64736f6c63430008000033",
  "linkReferences": {},
  "deployedLinkReferences": {}
}